{
  "contractName": "CrowdFund",
  "abi": [
    {
      "anonymous": false,
      "inputs": [
        {
          "indexed": false,
          "internalType": "string",
          "name": "username",
          "type": "string"
        },
        {
          "indexed": false,
          "internalType": "string",
          "name": "email",
          "type": "string"
        },
        {
          "indexed": false,
          "internalType": "string",
          "name": "password",
          "type": "string"
        },
        {
          "indexed": false,
          "internalType": "string",
          "name": "mobile",
          "type": "string"
        },
        {
          "indexed": false,
          "internalType": "address",
          "name": "backerAddress",
          "type": "address"
        }
      ],
      "name": "backerCreated",
      "type": "event"
    },
    {
      "anonymous": false,
      "inputs": [
        {
          "indexed": false,
          "internalType": "string",
          "name": "username",
          "type": "string"
        },
        {
          "indexed": false,
          "internalType": "string",
          "name": "email",
          "type": "string"
        },
        {
          "indexed": false,
          "internalType": "string",
          "name": "message",
          "type": "string"
        }
      ],
      "name": "queryCreated",
      "type": "event"
    },
    {
      "anonymous": false,
      "inputs": [
        {
          "indexed": false,
          "internalType": "string",
          "name": "fileUrl",
          "type": "string"
        },
        {
          "indexed": false,
          "internalType": "uint256",
          "name": "stage",
          "type": "uint256"
        },
        {
          "indexed": false,
          "internalType": "uint256",
          "name": "adminApproveStage",
          "type": "uint256"
        },
        {
          "indexed": false,
          "internalType": "uint256",
          "name": "amountRecieved",
          "type": "uint256"
        },
        {
          "indexed": false,
          "internalType": "address payable",
          "name": "projectAddress",
          "type": "address"
        },
        {
          "indexed": false,
          "internalType": "string[]",
          "name": "backerFundEmails",
          "type": "string[]"
        },
        {
          "indexed": false,
          "internalType": "string",
          "name": "termsAndCondition",
          "type": "string"
        }
      ],
      "name": "startUpProject2Created",
      "type": "event"
    },
    {
      "anonymous": false,
      "inputs": [
        {
          "indexed": false,
          "internalType": "string",
          "name": "title",
          "type": "string"
        },
        {
          "indexed": false,
          "internalType": "string",
          "name": "desc",
          "type": "string"
        },
        {
          "indexed": false,
          "internalType": "string",
          "name": "startDate",
          "type": "string"
        },
        {
          "indexed": false,
          "internalType": "string",
          "name": "endDate",
          "type": "string"
        },
        {
          "indexed": false,
          "internalType": "uint256",
          "name": "amountToBeRaised",
          "type": "uint256"
        },
        {
          "indexed": false,
          "internalType": "bool",
          "name": "isSetMileStone",
          "type": "bool"
        },
        {
          "indexed": false,
          "internalType": "string",
          "name": "m1",
          "type": "string"
        },
        {
          "indexed": false,
          "internalType": "string",
          "name": "m2",
          "type": "string"
        },
        {
          "indexed": false,
          "internalType": "string",
          "name": "m3",
          "type": "string"
        },
        {
          "indexed": false,
          "internalType": "bool",
          "name": "isApproved",
          "type": "bool"
        },
        {
          "indexed": false,
          "internalType": "uint256",
          "name": "amountRaised",
          "type": "uint256"
        },
        {
          "indexed": false,
          "internalType": "string",
          "name": "projectURL",
          "type": "string"
        }
      ],
      "name": "startupProjectCreated",
      "type": "event"
    },
    {
      "anonymous": false,
      "inputs": [
        {
          "indexed": false,
          "internalType": "string",
          "name": "username",
          "type": "string"
        },
        {
          "indexed": false,
          "internalType": "string",
          "name": "email",
          "type": "string"
        },
        {
          "indexed": false,
          "internalType": "string",
          "name": "password",
          "type": "string"
        },
        {
          "indexed": false,
          "internalType": "string",
          "name": "mobile",
          "type": "string"
        },
        {
          "indexed": false,
          "internalType": "string",
          "name": "fileUrl",
          "type": "string"
        },
        {
          "indexed": false,
          "internalType": "address",
          "name": "startUpUserAddress",
          "type": "address"
        }
      ],
      "name": "startupUserCreated",
      "type": "event"
    },
    {
      "inputs": [],
      "name": "administrator",
      "outputs": [
        {
          "internalType": "address",
          "name": "",
          "type": "address"
        }
      ],
      "stateMutability": "view",
      "type": "function",
      "constant": true
    },
    {
      "inputs": [
        {
          "internalType": "string",
          "name": "",
          "type": "string"
        },
        {
          "internalType": "uint256",
          "name": "",
          "type": "uint256"
        }
      ],
      "name": "backerFundsList",
      "outputs": [
        {
          "internalType": "uint256",
          "name": "",
          "type": "uint256"
        }
      ],
      "stateMutability": "view",
      "type": "function",
      "constant": true
    },
    {
      "inputs": [
        {
          "internalType": "string",
          "name": "",
          "type": "string"
        }
      ],
      "name": "backerList",
      "outputs": [
        {
          "internalType": "string",
          "name": "username",
          "type": "string"
        },
        {
          "internalType": "string",
          "name": "email",
          "type": "string"
        },
        {
          "internalType": "string",
          "name": "password",
          "type": "string"
        },
        {
          "internalType": "string",
          "name": "mobile",
          "type": "string"
        },
        {
          "internalType": "address payable",
          "name": "backerAddress",
          "type": "address"
        }
      ],
      "stateMutability": "view",
      "type": "function",
      "constant": true
    },
    {
      "inputs": [],
      "name": "backersCount",
      "outputs": [
        {
          "internalType": "uint256",
          "name": "",
          "type": "uint256"
        }
      ],
      "stateMutability": "view",
      "type": "function",
      "constant": true
    },
    {
      "inputs": [],
      "name": "queryCount",
      "outputs": [
        {
          "internalType": "uint256",
          "name": "",
          "type": "uint256"
        }
      ],
      "stateMutability": "view",
      "type": "function",
      "constant": true
    },
    {
      "inputs": [
        {
          "internalType": "uint256",
          "name": "",
          "type": "uint256"
        }
      ],
      "name": "queryList",
      "outputs": [
        {
          "internalType": "string",
          "name": "username",
          "type": "string"
        },
        {
          "internalType": "string",
          "name": "email",
          "type": "string"
        },
        {
          "internalType": "string",
          "name": "message",
          "type": "string"
        }
      ],
      "stateMutability": "view",
      "type": "function",
      "constant": true
    },
    {
      "inputs": [
        {
          "internalType": "uint256",
          "name": "",
          "type": "uint256"
        }
      ],
      "name": "startUpProjectList",
      "outputs": [
        {
          "internalType": "string",
          "name": "title",
          "type": "string"
        },
        {
          "internalType": "string",
          "name": "desc",
          "type": "string"
        },
        {
          "internalType": "string",
          "name": "startDate",
          "type": "string"
        },
        {
          "internalType": "string",
          "name": "endDate",
          "type": "string"
        },
        {
          "internalType": "uint256",
          "name": "amountToBeRaised",
          "type": "uint256"
        },
        {
          "internalType": "bool",
          "name": "isSetMileStone",
          "type": "bool"
        },
        {
          "internalType": "string",
          "name": "m1",
          "type": "string"
        },
        {
          "internalType": "string",
          "name": "m2",
          "type": "string"
        },
        {
          "internalType": "string",
          "name": "m3",
          "type": "string"
        },
        {
          "internalType": "bool",
          "name": "isApproved",
          "type": "bool"
        },
        {
          "internalType": "uint256",
          "name": "amountRaised",
          "type": "uint256"
        },
        {
          "internalType": "string",
          "name": "projectURL",
          "type": "string"
        }
      ],
      "stateMutability": "view",
      "type": "function",
      "constant": true
    },
    {
      "inputs": [
        {
          "internalType": "uint256",
          "name": "",
          "type": "uint256"
        }
      ],
      "name": "startUpProjectList2",
      "outputs": [
        {
          "internalType": "string",
          "name": "fileUrl",
          "type": "string"
        },
        {
          "internalType": "uint256",
          "name": "stage",
          "type": "uint256"
        },
        {
          "internalType": "uint256",
          "name": "adminApproveStage",
          "type": "uint256"
        },
        {
          "internalType": "uint256",
          "name": "amountRecieved",
          "type": "uint256"
        },
        {
          "internalType": "address payable",
          "name": "projectAddress",
          "type": "address"
        },
        {
          "internalType": "string",
          "name": "termsAndCondition",
          "type": "string"
        }
      ],
      "stateMutability": "view",
      "type": "function",
      "constant": true
    },
    {
      "inputs": [],
      "name": "startUpProjectsCount",
      "outputs": [
        {
          "internalType": "uint256",
          "name": "",
          "type": "uint256"
        }
      ],
      "stateMutability": "view",
      "type": "function",
      "constant": true
    },
    {
      "inputs": [],
      "name": "startupUserCount",
      "outputs": [
        {
          "internalType": "uint256",
          "name": "",
          "type": "uint256"
        }
      ],
      "stateMutability": "view",
      "type": "function",
      "constant": true
    },
    {
      "inputs": [
        {
          "internalType": "string",
          "name": "",
          "type": "string"
        }
      ],
      "name": "startupUsersList",
      "outputs": [
        {
          "internalType": "string",
          "name": "username",
          "type": "string"
        },
        {
          "internalType": "string",
          "name": "email",
          "type": "string"
        },
        {
          "internalType": "string",
          "name": "password",
          "type": "string"
        },
        {
          "internalType": "string",
          "name": "mobile",
          "type": "string"
        },
        {
          "internalType": "string",
          "name": "fileUrl",
          "type": "string"
        },
        {
          "internalType": "address payable",
          "name": "startUpUserAddress",
          "type": "address"
        }
      ],
      "stateMutability": "view",
      "type": "function",
      "constant": true
    },
    {
      "inputs": [
        {
          "internalType": "string",
          "name": "_username",
          "type": "string"
        },
        {
          "internalType": "string",
          "name": "_email",
          "type": "string"
        },
        {
          "internalType": "string",
          "name": "_password",
          "type": "string"
        },
        {
          "internalType": "string",
          "name": "_mobile",
          "type": "string"
        },
        {
          "internalType": "string",
          "name": "_fileUrl",
          "type": "string"
        },
        {
          "internalType": "address payable",
          "name": "_address",
          "type": "address"
        }
      ],
      "name": "createStartUpUser",
      "outputs": [],
      "stateMutability": "nonpayable",
      "type": "function"
    },
    {
      "inputs": [
        {
          "internalType": "string",
          "name": "_username",
          "type": "string"
        },
        {
          "internalType": "string",
          "name": "_email",
          "type": "string"
        },
        {
          "internalType": "string",
          "name": "_password",
          "type": "string"
        },
        {
          "internalType": "string",
          "name": "_mobile",
          "type": "string"
        },
        {
          "internalType": "address payable",
          "name": "_address",
          "type": "address"
        }
      ],
      "name": "createBacker",
      "outputs": [],
      "stateMutability": "nonpayable",
      "type": "function"
    },
    {
      "inputs": [
        {
          "internalType": "string",
          "name": "_title",
          "type": "string"
        },
        {
          "internalType": "string",
          "name": "_desc",
          "type": "string"
        },
        {
          "internalType": "string",
          "name": "_startDate",
          "type": "string"
        },
        {
          "internalType": "string",
          "name": "_endDate",
          "type": "string"
        },
        {
          "internalType": "uint256",
          "name": "_amountToBeRaised",
          "type": "uint256"
        },
        {
          "internalType": "string",
          "name": "_projectURL",
          "type": "string"
        },
        {
          "internalType": "string",
          "name": "_fileUrl",
          "type": "string"
        },
        {
          "internalType": "address payable",
          "name": "_address",
          "type": "address"
        },
        {
          "internalType": "string",
          "name": "termsAndCondition",
          "type": "string"
        }
      ],
      "name": "createStartUpProject",
      "outputs": [],
      "stateMutability": "nonpayable",
      "type": "function"
    },
    {
      "inputs": [
        {
          "internalType": "uint256",
          "name": "_index",
          "type": "uint256"
        },
        {
          "internalType": "string",
          "name": "_m1",
          "type": "string"
        },
        {
          "internalType": "string",
          "name": "_m2",
          "type": "string"
        },
        {
          "internalType": "string",
          "name": "_m3",
          "type": "string"
        }
      ],
      "name": "updateMileStone",
      "outputs": [],
      "stateMutability": "payable",
      "type": "function",
      "payable": true
    },
    {
      "inputs": [
        {
          "internalType": "uint256",
          "name": "_index",
          "type": "uint256"
        }
      ],
      "name": "approveProject",
      "outputs": [],
      "stateMutability": "nonpayable",
      "type": "function"
    },
    {
      "inputs": [
        {
          "internalType": "uint256",
          "name": "_index",
          "type": "uint256"
        }
      ],
      "name": "rejectProject",
      "outputs": [],
      "stateMutability": "payable",
      "type": "function",
      "payable": true
    },
    {
      "inputs": [
        {
          "internalType": "uint256",
          "name": "_index",
          "type": "uint256"
        },
        {
          "internalType": "string",
          "name": "_email",
          "type": "string"
        },
        {
          "internalType": "uint256",
          "name": "_amount",
          "type": "uint256"
        }
      ],
      "name": "updateFunds",
      "outputs": [],
      "stateMutability": "payable",
      "type": "function",
      "payable": true
    },
    {
      "inputs": [
        {
          "internalType": "string",
          "name": "_email",
          "type": "string"
        },
        {
          "internalType": "uint256",
          "name": "_index",
          "type": "uint256"
        }
      ],
      "name": "getMyFunds",
      "outputs": [
        {
          "internalType": "uint256",
          "name": "",
          "type": "uint256"
        }
      ],
      "stateMutability": "view",
      "type": "function",
      "constant": true
    },
    {
      "inputs": [],
      "name": "getQueryCount",
      "outputs": [
        {
          "internalType": "uint256",
          "name": "",
          "type": "uint256"
        }
      ],
      "stateMutability": "view",
      "type": "function",
      "constant": true
    },
    {
      "inputs": [
        {
          "internalType": "uint256",
          "name": "_index",
          "type": "uint256"
        }
      ],
      "name": "changeStage",
      "outputs": [],
      "stateMutability": "nonpayable",
      "type": "function"
    },
    {
      "inputs": [
        {
          "internalType": "string",
          "name": "_username",
          "type": "string"
        },
        {
          "internalType": "string",
          "name": "_email",
          "type": "string"
        },
        {
          "internalType": "string",
          "name": "_message",
          "type": "string"
        }
      ],
      "name": "addQuery",
      "outputs": [],
      "stateMutability": "nonpayable",
      "type": "function"
    }
  ],
  "bytecode": "0x6080604052600060015560006002556000600355600060045534801561002457600080fd5b50613404806100346000396000f3fe6080604052600436106101355760003560e01c80639df19187116100ab578063d0c8d8c21161006f578063d0c8d8c214610421578063d6d1cfc21461044c578063da9d85e11461048d578063e193a6e7146104b6578063f53d0a8e146104f8578063fc69d8361461052357610135565b80639df191871461030f578063af2d18a01461034c578063b6167cb61461038e578063c07ccb68146103b9578063c2ef93e3146103f657610135565b806357dc936d116100fd57806357dc936d1461021b57806369b04f19146102375780637ae4bff814610253578063920dd7291461027c578063945eb473146102bb5780639b2aded4146102e457610135565b80631d565e781461013a5780632c84b7ec146101655780633668ebb2146101ad57806349ab89f5146101d657806355bd90da146101ff575b600080fd5b34801561014657600080fd5b5061014f61054c565b60405161015c9190612336565b60405180910390f35b34801561017157600080fd5b5061018c60048036038101906101879190612391565b610552565b6040516101a49c9b9a99989796959493929190612472565b60405180910390f35b3480156101b957600080fd5b506101d460048036038101906101cf91906126f7565b610a0c565b005b3480156101e257600080fd5b506101fd60048036038101906101f891906127e2565b610b83565b005b610219600480360381019061021491906128fb565b610d20565b005b6102356004803603810190610230919061296a565b610de8565b005b610251600480360381019061024c9190612391565b610e9e565b005b34801561025f57600080fd5b5061027a60048036038101906102759190612391565b61121d565b005b34801561028857600080fd5b506102a3600480360381019061029e9190612391565b61124c565b6040516102b293929190612a25565b60405180910390f35b3480156102c757600080fd5b506102e260048036038101906102dd9190612a71565b61140e565b005b3480156102f057600080fd5b506102f96114f0565b6040516103069190612336565b60405180910390f35b34801561031b57600080fd5b5061033660048036038101906103319190612b18565b6114f6565b6040516103439190612336565b60405180910390f35b34801561035857600080fd5b50610373600480360381019061036e9190612b74565b611531565b60405161038596959493929190612bcc565b60405180910390f35b34801561039a57600080fd5b506103a361184b565b6040516103b09190612336565b60405180910390f35b3480156103c557600080fd5b506103e060048036038101906103db9190612b18565b611851565b6040516103ed9190612336565b60405180910390f35b34801561040257600080fd5b5061040b61188b565b6040516104189190612336565b60405180910390f35b34801561042d57600080fd5b50610436611895565b6040516104439190612336565b60405180910390f35b34801561045857600080fd5b50610473600480360381019061046e9190612b74565b61189b565b604051610484959493929190612c50565b60405180910390f35b34801561049957600080fd5b506104b460048036038101906104af9190612cbf565b611b27565b005b3480156104c257600080fd5b506104dd60048036038101906104d89190612391565b611eee565b6040516104ef96959493929190612e4d565b60405180910390f35b34801561050457600080fd5b5061050d61205a565b60405161051a9190612edd565b60405180910390f35b34801561052f57600080fd5b5061054a60048036038101906105459190612391565b61207e565b005b60035481565b600660205280600052604060002060009150905080600001805461057590612f27565b80601f01602080910402602001604051908101604052809291908181526020018280546105a190612f27565b80156105ee5780601f106105c3576101008083540402835291602001916105ee565b820191906000526020600020905b8154815290600101906020018083116105d157829003601f168201915b50505050509080600101805461060390612f27565b80601f016020809104026020016040519081016040528092919081815260200182805461062f90612f27565b801561067c5780601f106106515761010080835404028352916020019161067c565b820191906000526020600020905b81548152906001019060200180831161065f57829003601f168201915b50505050509080600201805461069190612f27565b80601f01602080910402602001604051908101604052809291908181526020018280546106bd90612f27565b801561070a5780601f106106df5761010080835404028352916020019161070a565b820191906000526020600020905b8154815290600101906020018083116106ed57829003601f168201915b50505050509080600301805461071f90612f27565b80601f016020809104026020016040519081016040528092919081815260200182805461074b90612f27565b80156107985780601f1061076d57610100808354040283529160200191610798565b820191906000526020600020905b81548152906001019060200180831161077b57829003601f168201915b5050505050908060040154908060050160009054906101000a900460ff16908060060180546107c690612f27565b80601f01602080910402602001604051908101604052809291908181526020018280546107f290612f27565b801561083f5780601f106108145761010080835404028352916020019161083f565b820191906000526020600020905b81548152906001019060200180831161082257829003601f168201915b50505050509080600701805461085490612f27565b80601f016020809104026020016040519081016040528092919081815260200182805461088090612f27565b80156108cd5780601f106108a2576101008083540402835291602001916108cd565b820191906000526020600020905b8154815290600101906020018083116108b057829003601f168201915b5050505050908060080180546108e290612f27565b80601f016020809104026020016040519081016040528092919081815260200182805461090e90612f27565b801561095b5780601f106109305761010080835404028352916020019161095b565b820191906000526020600020905b81548152906001019060200180831161093e57829003601f168201915b5050505050908060090160009054906101000a900460ff169080600a01549080600b01805461098990612f27565b80601f01602080910402602001604051908101604052809291908181526020018280546109b590612f27565b8015610a025780601f106109d757610100808354040283529160200191610a02565b820191906000526020600020905b8154815290600101906020018083116109e557829003601f168201915b505050505090508c565b60036000815480929190610a1f90612f88565b91905055506040518060a001604052808681526020018581526020018481526020018381526020018273ffffffffffffffffffffffffffffffffffffffff16815250600785604051610a71919061300d565b90815260200160405180910390206000820151816000019080519060200190610a9b9291906121f5565b506020820151816001019080519060200190610ab89291906121f5565b506040820151816002019080519060200190610ad59291906121f5565b506060820151816003019080519060200190610af29291906121f5565b5060808201518160040160006101000a81548173ffffffffffffffffffffffffffffffffffffffff021916908373ffffffffffffffffffffffffffffffffffffffff1602179055509050507f8a41c6f3214edfb3f96426083b8589048aaaab2ab747716b4f79f0b30af069288585858585604051610b74959493929190613083565b60405180910390a15050505050565b60016000815480929190610b9690612f88565b91905055506040518060c001604052808781526020018681526020018581526020018481526020018381526020018273ffffffffffffffffffffffffffffffffffffffff16815250600586604051610bee919061300d565b90815260200160405180910390206000820151816000019080519060200190610c189291906121f5565b506020820151816001019080519060200190610c359291906121f5565b506040820151816002019080519060200190610c529291906121f5565b506060820151816003019080519060200190610c6f9291906121f5565b506080820151816004019080519060200190610c8c9291906121f5565b5060a08201518160050160006101000a81548173ffffffffffffffffffffffffffffffffffffffff021916908373ffffffffffffffffffffffffffffffffffffffff1602179055509050507fa211e3631c1da6f04bfd20592cbb9f1f57367aed4bd517d294a830f4e4d66737868686868686604051610d10969594939291906130f2565b60405180910390a1505050505050565b80600883604051610d31919061300d565b908152602001604051809103902060008581526020019081526020016000206000828254610d5f9190613176565b925050819055508060066000858152602001908152602001600020600a016000828254610d8c9190613176565b925050819055506009600084815260200190815260200160002060050182908060018154018082558091505060019003906000526020600020016000909190919091509080519060200190610de29291906121f5565b50505050565b60016006600086815260200190815260200160002060050160006101000a81548160ff02191690831515021790555082600660008681526020019081526020016000206006019080519060200190610e419291906121f5565b5081600660008681526020019081526020016000206007019080519060200190610e6c9291906121f5565b5080600660008681526020019081526020016000206008019080519060200190610e979291906121f5565b5050505050565b600060096000838152602001908152602001600020600501805480602002602001604051908101604052809291908181526020016000905b82821015610f82578382906000526020600020018054610ef590612f27565b80601f0160208091040260200160405190810160405280929190818152602001828054610f2190612f27565b8015610f6e5780601f10610f4357610100808354040283529160200191610f6e565b820191906000526020600020905b815481529060010190602001808311610f5157829003601f168201915b505050505081526020019060010190610ed6565b50505050905060005b81518110156110c55760006007838381518110610fab57610faa6131cc565b5b6020026020010151604051610fc0919061300d565b908152602001604051809103902060040160009054906101000a900473ffffffffffffffffffffffffffffffffffffffff169050600061101a84848151811061100c5761100b6131cc565b5b602002602001015186611851565b90508173ffffffffffffffffffffffffffffffffffffffff166108fc829081150290604051600060405180830381858888f19350505050158015611062573d6000803e3d6000fd5b506008848481518110611078576110776131cc565b5b602002602001015160405161108d919061300d565b9081526020016040518091039020600086815260200190815260200160002060009055505080806110bd90612f88565b915050610f8b565b5060066000838152602001908152602001600020600080820160006110ea919061227b565b6001820160006110fa919061227b565b60028201600061110a919061227b565b60038201600061111a919061227b565b60048201600090556005820160006101000a81549060ff0219169055600682016000611146919061227b565b600782016000611156919061227b565b600882016000611166919061227b565b6009820160006101000a81549060ff0219169055600a820160009055600b82016000611192919061227b565b505060096000838152602001908152602001600020600080820160006111b8919061227b565b6001820160009055600282016000905560038201600090556004820160006101000a81549073ffffffffffffffffffffffffffffffffffffffff021916905560058201600061120791906122bb565b600682016000611217919061227b565b50505050565b60096000828152602001908152602001600020600101600081548092919061124490612f88565b919050555050565b600a60205280600052604060002060009150905080600001805461126f90612f27565b80601f016020809104026020016040519081016040528092919081815260200182805461129b90612f27565b80156112e85780601f106112bd576101008083540402835291602001916112e8565b820191906000526020600020905b8154815290600101906020018083116112cb57829003601f168201915b5050505050908060010180546112fd90612f27565b80601f016020809104026020016040519081016040528092919081815260200182805461132990612f27565b80156113765780601f1061134b57610100808354040283529160200191611376565b820191906000526020600020905b81548152906001019060200180831161135957829003601f168201915b50505050509080600201805461138b90612f27565b80601f01602080910402602001604051908101604052809291908181526020018280546113b790612f27565b80156114045780601f106113d957610100808354040283529160200191611404565b820191906000526020600020905b8154815290600101906020018083116113e757829003601f168201915b5050505050905083565b6004600081548092919061142190612f88565b9190505550604051806060016040528084815260200183815260200182815250600a6000600454815260200190815260200160002060008201518160000190805190602001906114729291906121f5565b50602082015181600101908051906020019061148f9291906121f5565b5060408201518160020190805190602001906114ac9291906121f5565b509050507f23c3b83075aa1cad3f4a523ab4c8a8a3f40080637f0b28c8500d55d2ee25ddc08383836040516114e393929190612a25565b60405180910390a1505050565b60045481565b600882805160208101820180518482526020830160208501208183528095505050505050602052806000526040600020600091509150505481565b60058180516020810182018051848252602083016020850120818352809550505050505060009150905080600001805461156a90612f27565b80601f016020809104026020016040519081016040528092919081815260200182805461159690612f27565b80156115e35780601f106115b8576101008083540402835291602001916115e3565b820191906000526020600020905b8154815290600101906020018083116115c657829003601f168201915b5050505050908060010180546115f890612f27565b80601f016020809104026020016040519081016040528092919081815260200182805461162490612f27565b80156116715780601f1061164657610100808354040283529160200191611671565b820191906000526020600020905b81548152906001019060200180831161165457829003601f168201915b50505050509080600201805461168690612f27565b80601f01602080910402602001604051908101604052809291908181526020018280546116b290612f27565b80156116ff5780601f106116d4576101008083540402835291602001916116ff565b820191906000526020600020905b8154815290600101906020018083116116e257829003601f168201915b50505050509080600301805461171490612f27565b80601f016020809104026020016040519081016040528092919081815260200182805461174090612f27565b801561178d5780601f106117625761010080835404028352916020019161178d565b820191906000526020600020905b81548152906001019060200180831161177057829003601f168201915b5050505050908060040180546117a290612f27565b80601f01602080910402602001604051908101604052809291908181526020018280546117ce90612f27565b801561181b5780601f106117f05761010080835404028352916020019161181b565b820191906000526020600020905b8154815290600101906020018083116117fe57829003601f168201915b5050505050908060050160009054906101000a900473ffffffffffffffffffffffffffffffffffffffff16905086565b60025481565b6000600883604051611863919061300d565b9081526020016040518091039020600083815260200190815260200160002054905092915050565b6000600454905090565b60015481565b6007818051602081018201805184825260208301602085012081835280955050505050506000915090508060000180546118d490612f27565b80601f016020809104026020016040519081016040528092919081815260200182805461190090612f27565b801561194d5780601f106119225761010080835404028352916020019161194d565b820191906000526020600020905b81548152906001019060200180831161193057829003601f168201915b50505050509080600101805461196290612f27565b80601f016020809104026020016040519081016040528092919081815260200182805461198e90612f27565b80156119db5780601f106119b0576101008083540402835291602001916119db565b820191906000526020600020905b8154815290600101906020018083116119be57829003601f168201915b5050505050908060020180546119f090612f27565b80601f0160208091040260200160405190810160405280929190818152602001828054611a1c90612f27565b8015611a695780601f10611a3e57610100808354040283529160200191611a69565b820191906000526020600020905b815481529060010190602001808311611a4c57829003601f168201915b505050505090806003018054611a7e90612f27565b80601f0160208091040260200160405190810160405280929190818152602001828054611aaa90612f27565b8015611af75780601f10611acc57610100808354040283529160200191611af7565b820191906000526020600020905b815481529060010190602001808311611ada57829003601f168201915b5050505050908060040160009054906101000a900473ffffffffffffffffffffffffffffffffffffffff16905085565b60026000815480929190611b3a90612f88565b91905055506040518061018001604052808a81526020018981526020018881526020018781526020018681526020016000151581526020016040518060400160405280601181526020017f4d696c6573746f6e65206e6f742073657400000000000000000000000000000081525081526020016040518060400160405280601181526020017f4d696c6573746f6e65206e6f742073657400000000000000000000000000000081525081526020016040518060400160405280601181526020017f4d696c6573746f6e65206e6f7420736574000000000000000000000000000000815250815260200160001515815260200160008152602001858152506006600060025481526020019081526020016000206000820151816000019080519060200190611c689291906121f5565b506020820151816001019080519060200190611c859291906121f5565b506040820151816002019080519060200190611ca29291906121f5565b506060820151816003019080519060200190611cbf9291906121f5565b506080820151816004015560a08201518160050160006101000a81548160ff02191690831515021790555060c0820151816006019080519060200190611d069291906121f5565b5060e0820151816007019080519060200190611d239291906121f5565b50610100820151816008019080519060200190611d419291906121f5565b506101208201518160090160006101000a81548160ff02191690831515021790555061014082015181600a015561016082015181600b019080519060200190611d8b9291906121f5565b50905050826009600060025481526020019081526020016000206000019080519060200190611dbb9291906121f5565b506000600960006002548152602001908152602001600020600101819055506000600960006002548152602001908152602001600020600201819055506000600960006002548152602001908152602001600020600301819055508160096000600254815260200190815260200160002060040160006101000a81548173ffffffffffffffffffffffffffffffffffffffff021916908373ffffffffffffffffffffffffffffffffffffffff160217905550806009600060025481526020019081526020016000206006019080519060200190611e999291906121f5565b507fc5e72124a783930a38b129e1120eda130fbbff47f9ada719561edaa97e95630c898989898960008060008c604051611edb99989796959493929190613282565b60405180910390a1505050505050505050565b6009602052806000526040600020600091509050806000018054611f1190612f27565b80601f0160208091040260200160405190810160405280929190818152602001828054611f3d90612f27565b8015611f8a5780601f10611f5f57610100808354040283529160200191611f8a565b820191906000526020600020905b815481529060010190602001808311611f6d57829003601f168201915b5050505050908060010154908060020154908060030154908060040160009054906101000a900473ffffffffffffffffffffffffffffffffffffffff1690806006018054611fd790612f27565b80601f016020809104026020016040519081016040528092919081815260200182805461200390612f27565b80156120505780601f1061202557610100808354040283529160200191612050565b820191906000526020600020905b81548152906001019060200180831161203357829003601f168201915b5050505050905086565b60008054906101000a900473ffffffffffffffffffffffffffffffffffffffff1681565b60016006600083815260200190815260200160002060090160006101000a81548160ff021916908315150217905550600660008281526020019081526020016000206004015460066000838152602001908152602001600020600a015414156121c657600060066000838152602001908152602001600020600a0154905060006009600084815260200190815260200160002060040160009054906101000a900473ffffffffffffffffffffffffffffffffffffffff169050600382612144919061339d565b6009600085815260200190815260200160002060030160008282546121699190613176565b925050819055508073ffffffffffffffffffffffffffffffffffffffff166108fc600384612197919061339d565b9081150290604051600060405180830381858888f193505050501580156121c2573d6000803e3d6000fd5b5050505b6009600082815260200190815260200160002060020160008154809291906121ed90612f88565b919050555050565b82805461220190612f27565b90600052602060002090601f016020900481019282612223576000855561226a565b82601f1061223c57805160ff191683800117855561226a565b8280016001018555821561226a579182015b8281111561226957825182559160200191906001019061224e565b5b50905061227791906122dc565b5090565b50805461228790612f27565b6000825580601f1061229957506122b8565b601f0160209004906000526020600020908101906122b791906122dc565b5b50565b50805460008255906000526020600020908101906122d991906122f9565b50565b5b808211156122f55760008160009055506001016122dd565b5090565b5b808211156123195760008181612310919061227b565b506001016122fa565b5090565b6000819050919050565b6123308161231d565b82525050565b600060208201905061234b6000830184612327565b92915050565b6000604051905090565b600080fd5b600080fd5b61236e8161231d565b811461237957600080fd5b50565b60008135905061238b81612365565b92915050565b6000602082840312156123a7576123a661235b565b5b60006123b58482850161237c565b91505092915050565b600081519050919050565b600082825260208201905092915050565b60005b838110156123f85780820151818401526020810190506123dd565b83811115612407576000848401525b50505050565b6000601f19601f8301169050919050565b6000612429826123be565b61243381856123c9565b93506124438185602086016123da565b61244c8161240d565b840191505092915050565b60008115159050919050565b61246c81612457565b82525050565b600061018082019050818103600083015261248d818f61241e565b905081810360208301526124a1818e61241e565b905081810360408301526124b5818d61241e565b905081810360608301526124c9818c61241e565b90506124d8608083018b612327565b6124e560a083018a612463565b81810360c08301526124f7818961241e565b905081810360e083015261250b818861241e565b9050818103610100830152612520818761241e565b9050612530610120830186612463565b61253e610140830185612327565b818103610160830152612551818461241e565b90509d9c50505050505050505050505050565b600080fd5b600080fd5b7f4e487b7100000000000000000000000000000000000000000000000000000000600052604160045260246000fd5b6125a68261240d565b810181811067ffffffffffffffff821117156125c5576125c461256e565b5b80604052505050565b60006125d8612351565b90506125e4828261259d565b919050565b600067ffffffffffffffff8211156126045761260361256e565b5b61260d8261240d565b9050602081019050919050565b82818337600083830152505050565b600061263c612637846125e9565b6125ce565b90508281526020810184848401111561265857612657612569565b5b61266384828561261a565b509392505050565b600082601f8301126126805761267f612564565b5b8135612690848260208601612629565b91505092915050565b600073ffffffffffffffffffffffffffffffffffffffff82169050919050565b60006126c482612699565b9050919050565b6126d4816126b9565b81146126df57600080fd5b50565b6000813590506126f1816126cb565b92915050565b600080600080600060a086880312156127135761271261235b565b5b600086013567ffffffffffffffff81111561273157612730612360565b5b61273d8882890161266b565b955050602086013567ffffffffffffffff81111561275e5761275d612360565b5b61276a8882890161266b565b945050604086013567ffffffffffffffff81111561278b5761278a612360565b5b6127978882890161266b565b935050606086013567ffffffffffffffff8111156127b8576127b7612360565b5b6127c48882890161266b565b92505060806127d5888289016126e2565b9150509295509295909350565b60008060008060008060c087890312156127ff576127fe61235b565b5b600087013567ffffffffffffffff81111561281d5761281c612360565b5b61282989828a0161266b565b965050602087013567ffffffffffffffff81111561284a57612849612360565b5b61285689828a0161266b565b955050604087013567ffffffffffffffff81111561287757612876612360565b5b61288389828a0161266b565b945050606087013567ffffffffffffffff8111156128a4576128a3612360565b5b6128b089828a0161266b565b935050608087013567ffffffffffffffff8111156128d1576128d0612360565b5b6128dd89828a0161266b565b92505060a06128ee89828a016126e2565b9150509295509295509295565b6000806000606084860312156129145761291361235b565b5b60006129228682870161237c565b935050602084013567ffffffffffffffff81111561294357612942612360565b5b61294f8682870161266b565b92505060406129608682870161237c565b9150509250925092565b600080600080608085870312156129845761298361235b565b5b60006129928782880161237c565b945050602085013567ffffffffffffffff8111156129b3576129b2612360565b5b6129bf8782880161266b565b935050604085013567ffffffffffffffff8111156129e0576129df612360565b5b6129ec8782880161266b565b925050606085013567ffffffffffffffff811115612a0d57612a0c612360565b5b612a198782880161266b565b91505092959194509250565b60006060820190508181036000830152612a3f818661241e565b90508181036020830152612a53818561241e565b90508181036040830152612a67818461241e565b9050949350505050565b600080600060608486031215612a8a57612a8961235b565b5b600084013567ffffffffffffffff811115612aa857612aa7612360565b5b612ab48682870161266b565b935050602084013567ffffffffffffffff811115612ad557612ad4612360565b5b612ae18682870161266b565b925050604084013567ffffffffffffffff811115612b0257612b01612360565b5b612b0e8682870161266b565b9150509250925092565b60008060408385031215612b2f57612b2e61235b565b5b600083013567ffffffffffffffff811115612b4d57612b4c612360565b5b612b598582860161266b565b9250506020612b6a8582860161237c565b9150509250929050565b600060208284031215612b8a57612b8961235b565b5b600082013567ffffffffffffffff811115612ba857612ba7612360565b5b612bb48482850161266b565b91505092915050565b612bc6816126b9565b82525050565b600060c0820190508181036000830152612be6818961241e565b90508181036020830152612bfa818861241e565b90508181036040830152612c0e818761241e565b90508181036060830152612c22818661241e565b90508181036080830152612c36818561241e565b9050612c4560a0830184612bbd565b979650505050505050565b600060a0820190508181036000830152612c6a818861241e565b90508181036020830152612c7e818761241e565b90508181036040830152612c92818661241e565b90508181036060830152612ca6818561241e565b9050612cb56080830184612bbd565b9695505050505050565b60008060008060008060008060006101208a8c031215612ce257612ce161235b565b5b60008a013567ffffffffffffffff811115612d0057612cff612360565b5b612d0c8c828d0161266b565b99505060208a013567ffffffffffffffff811115612d2d57612d2c612360565b5b612d398c828d0161266b565b98505060408a013567ffffffffffffffff811115612d5a57612d59612360565b5b612d668c828d0161266b565b97505060608a013567ffffffffffffffff811115612d8757612d86612360565b5b612d938c828d0161266b565b9650506080612da48c828d0161237c565b95505060a08a013567ffffffffffffffff811115612dc557612dc4612360565b5b612dd18c828d0161266b565b94505060c08a013567ffffffffffffffff811115612df257612df1612360565b5b612dfe8c828d0161266b565b93505060e0612e0f8c828d016126e2565b9250506101008a013567ffffffffffffffff811115612e3157612e30612360565b5b612e3d8c828d0161266b565b9150509295985092959850929598565b600060c0820190508181036000830152612e67818961241e565b9050612e766020830188612327565b612e836040830187612327565b612e906060830186612327565b612e9d6080830185612bbd565b81810360a0830152612eaf818461241e565b9050979650505050505050565b6000612ec782612699565b9050919050565b612ed781612ebc565b82525050565b6000602082019050612ef26000830184612ece565b92915050565b7f4e487b7100000000000000000000000000000000000000000000000000000000600052602260045260246000fd5b60006002820490506001821680612f3f57607f821691505b60208210811415612f5357612f52612ef8565b5b50919050565b7f4e487b7100000000000000000000000000000000000000000000000000000000600052601160045260246000fd5b6000612f938261231d565b91507fffffffffffffffffffffffffffffffffffffffffffffffffffffffffffffffff821415612fc657612fc5612f59565b5b600182019050919050565b600081905092915050565b6000612fe7826123be565b612ff18185612fd1565b93506130018185602086016123da565b80840191505092915050565b60006130198284612fdc565b915081905092915050565b6000819050919050565b600061304961304461303f84612699565b613024565b612699565b9050919050565b600061305b8261302e565b9050919050565b600061306d82613050565b9050919050565b61307d81613062565b82525050565b600060a082019050818103600083015261309d818861241e565b905081810360208301526130b1818761241e565b905081810360408301526130c5818661241e565b905081810360608301526130d9818561241e565b90506130e86080830184613074565b9695505050505050565b600060c082019050818103600083015261310c818961241e565b90508181036020830152613120818861241e565b90508181036040830152613134818761241e565b90508181036060830152613148818661241e565b9050818103608083015261315c818561241e565b905061316b60a0830184613074565b979650505050505050565b60006131818261231d565b915061318c8361231d565b9250827fffffffffffffffffffffffffffffffffffffffffffffffffffffffffffffffff038211156131c1576131c0612f59565b5b828201905092915050565b7f4e487b7100000000000000000000000000000000000000000000000000000000600052603260045260246000fd5b7f4d696c6573746f6e65206e6f7420736574000000000000000000000000000000600082015250565b60006132316011836123c9565b915061323c826131fb565b602082019050919050565b6000819050919050565b600061326c61326761326284613247565b613024565b61231d565b9050919050565b61327c81613251565b82525050565b600061018082019050818103600083015261329d818c61241e565b905081810360208301526132b1818b61241e565b905081810360408301526132c5818a61241e565b905081810360608301526132d9818961241e565b90506132e86080830188612327565b6132f560a0830187612463565b81810360c083015261330681613224565b905081810360e083015261331981613224565b905081810361010083015261332d81613224565b905061333d610120830186612463565b61334b610140830185613273565b81810361016083015261335e818461241e565b90509a9950505050505050505050565b7f4e487b7100000000000000000000000000000000000000000000000000000000600052601260045260246000fd5b60006133a88261231d565b91506133b38361231d565b9250826133c3576133c261336e565b5b82820490509291505056fea26469706673582212200a6726584afb7b8a551b68447a469b9006256cd51e882b9cd68b185f904a98fa64736f6c634300080c0033",
  "immutableReferences": {},
  "source": "// SPDX-License-Identifier: MIT\npragma solidity >=0.4.22 < 0.9.0;\ncontract CrowdFund{\n\n   address public administrator;\n    \n   uint public startupUserCount=0;\n\n   uint public startUpProjectsCount=0;\n\n   uint public backersCount=0;\n\n   uint public queryCount = 0;\n\n\n mapping(string => startupUser) public startupUsersList;\n\n mapping(uint=> startupProject) public startUpProjectList;\n\n mapping(string=> backer) public backerList;\n\n mapping(string => mapping(uint=> uint)) public backerFundsList;\n\n mapping(uint => startUpProject2) public startUpProjectList2;\n\n mapping(uint => query) public queryList;\n\n\n\n struct startUpProject2{\n\n    string fileUrl;\n    uint stage;\n    uint adminApproveStage;\n    uint amountRecieved;\n    address  payable projectAddress;\n    string[] backerFundEmails;\n    string termsAndCondition;\n\n }\n\n struct query{\n     string username;\n     string email;\n     string message;\n }\n\n struct startupUser{\n      string username;\n      string email;\n      string password;\n      string mobile;\n      string fileUrl;\n      address payable startUpUserAddress;\n  }\n\n   struct startupProject{\n      string title;\n      string desc;\n      string startDate;\n      string endDate;\n      uint amountToBeRaised;\n      bool isSetMileStone;\n      string m1;\n      string m2;\n      string m3;\n      bool isApproved;\n      uint amountRaised;\n      string projectURL;\n     \n  }\n\n   struct backer{\n      string username;\n      string email;\n      string password;\n      string mobile;\n    address  payable backerAddress;\n  }\n\n  // events\n\n   event startupUserCreated(\n      string username,\n      string email,\n      string password,\n      string mobile,\n      string fileUrl,\n     address startUpUserAddress\n      \n    );\n    event backerCreated(\n      string username,\n      string email,\n      string password,\n      string mobile,\n    address backerAddress\n      \n    );\n    event startupProjectCreated(\n      string title,\n      string desc,\n      string startDate,\n      string endDate,\n      uint amountToBeRaised,\n      bool isSetMileStone,\n      string m1,\n      string m2,\n      string m3,\n      bool isApproved,\n      uint amountRaised,\n      string projectURL\n   \n    );\n\n    event startUpProject2Created(\n    string fileUrl,\n    uint stage,\n    uint adminApproveStage,\n    uint amountRecieved,\n    address payable projectAddress,\n     string[] backerFundEmails,\n     string termsAndCondition\n    );\n\n    event queryCreated(\n\n        string username,\n        string email,\n        string message\n    );\n\n    // on registration by startup user below method calls \n\n    function createStartUpUser(string memory _username,string memory _email,string memory _password,string memory _mobile,string memory _fileUrl,address payable _address) public {\n      \n        startupUserCount++;\n\n        startupUsersList[_email] = startupUser(_username,_email,_password,_mobile,_fileUrl,_address);\n      \n        emit startupUserCreated(_username,_email,_password,_mobile,_fileUrl,_address);\n    }\n\n       // on registration by backer user below method calls \n\n        function createBacker(string memory _username,string memory _email,string memory _password,string memory _mobile,address payable _address) public {\n      \n        backersCount++;\n\n        backerList[_email] = backer(_username,_email,_password,_mobile,_address);\n      \n        emit backerCreated(_username,_email,_password,_mobile,_address);\n    }\n\n    // creating startup project \n\n     function createStartUpProject(string memory _title,string memory _desc,string memory _startDate,string memory _endDate,uint _amountToBeRaised,string memory _projectURL,string memory _fileUrl,address payable _address,string memory termsAndCondition) public {\n      \n        startUpProjectsCount++;\n\n        startUpProjectList[startUpProjectsCount] = startupProject(_title,_desc,_startDate,_endDate,_amountToBeRaised,false,\"Milestone not set\",\"Milestone not set\",\"Milestone not set\",false,0,_projectURL);\n\n        startUpProjectList2[startUpProjectsCount].fileUrl=_fileUrl;\n\n        startUpProjectList2[startUpProjectsCount].stage = 0;\n\n        startUpProjectList2[startUpProjectsCount].adminApproveStage = 0;\n\n        startUpProjectList2[startUpProjectsCount].amountRecieved=0;\n\n        startUpProjectList2[startUpProjectsCount].projectAddress=_address;\n\n        startUpProjectList2[startUpProjectsCount].termsAndCondition=termsAndCondition;\n\n      \n        emit startupProjectCreated(_title,_desc,_startDate,_endDate,_amountToBeRaised,false,\"Milestone not set\",\"Milestone not set\",\"Milestone not set\",false,0,_projectURL);\n    }\n\n    // adding milestone to respective project\n\n    function updateMileStone(uint _index, string memory _m1, string memory _m2, string memory _m3)  external payable { \n\n     startUpProjectList[_index].isSetMileStone=true;\n\n    startUpProjectList[_index].m1=_m1;\n    startUpProjectList[_index].m2=_m2;\n    startUpProjectList[_index].m3=_m3;\n  }\n\n  // approving project by admin\n\n   function approveProject(uint _index) public { \n\n     startUpProjectList[_index].isApproved=true;\n\n\n    if(startUpProjectList[_index].amountRaised ==  startUpProjectList[_index].amountToBeRaised) {\n\n           \n     uint tamount = startUpProjectList[_index].amountRaised;\n\n\n      address payable _to = startUpProjectList2[_index].projectAddress;\n\n       startUpProjectList2[_index].amountRecieved+=tamount/3;\n\n       // transferring 1/3 amount on every stage approvals\n\n        _to.transfer(tamount/3);\n     \n    }\n\n     startUpProjectList2[_index].adminApproveStage++;\n\n    }\n\n    // rejecting project \n\n    function rejectProject(uint _index) public payable {\n\n        string[] memory backerEmails = startUpProjectList2[_index].backerFundEmails;\n\n        for(uint i=0;i<backerEmails.length;i++){\n\n            address payable _backerAddress = backerList[backerEmails[i]].backerAddress;\n\n            uint backerFund = getMyFunds(backerEmails[i], _index);\n\n            _backerAddress.transfer(backerFund);\n\n             delete backerFundsList[backerEmails[i]][_index];\n\n        \n        }\n\n\n        delete startUpProjectList[_index];\n        delete startUpProjectList2[_index];\n\n        // startUpProjectsCount--;\n               \n    }\n\n    // adding funds to project when backer clicks on fund\n\n    function updateFunds(uint _index,string memory _email,uint _amount) external payable {\n\n        backerFundsList[_email][_index]+=_amount;\n\n        startUpProjectList[_index].amountRaised+=_amount;\n\n        startUpProjectList2[_index].backerFundEmails.push(_email);\n        \n    }\n\n    // below methods triggers when backer calls for his/her funds\n    \n     function getMyFunds(string memory _email,uint _index) public view returns(uint){\n        return  backerFundsList[_email][_index];\n    }\n\n    // fetching query count from admin\n\n       function getQueryCount() public view returns(uint){\n        return  queryCount;\n    }\n\n       \n\n    // changing stage \n\n\n    function changeStage(uint _index) public {\n\n            startUpProjectList2[_index].stage++;\n    }\n\n\n    // adding query\n\n\n\n      function addQuery(string memory _username,string memory _email , string memory _message) public {\n            \n         queryCount++;\n\n         queryList[queryCount] = query(_username,_email,_message);\n      \n         emit queryCreated(_username,_email,_message);\n    }\n\n\n}",
  "sourcePath": "C:\\Users\\SAC\\Documents\\VSCodeEnvironment\\AAAAA\\crow-funding-blockchain-master\\src\\contracts\\CrowdFund.sol",
  "compiler": {
    "name": "solc",
    "version": "0.8.12+commit.f00d7308.Emscripten.clang"
  },
  "schemaVersion": "3.4.16",
  "updatedAt": "2024-11-26T11:26:50.196Z",
  "networkType": "ethereum",
  "devdoc": {
    "kind": "dev",
    "methods": {},
    "version": 1
  },
  "userdoc": {
    "kind": "user",
    "methods": {},
    "version": 1
  }
}